:020000040800F2
:10000000D8F200205D03000871740008F173000845
:1000100069740008F10E000879A1000800000000D2
:100020000000000000000000000000005177000800
:10003000E9130008000000009174000879770008B7
:1000400077030008770300087703000877030008A8
:100050007703000877030008770300087703000898
:10006000770300087703000877030008A10F000852
:100070007703000877030008770300087703000878
:100080007703000877030008770300087703000868
:100090007703000877030008770300087703000858
:1000A0007703000877030008770300087703000848
:1000B000B979000877030008770300087703000880
:1000C0007703000877030008770300087703000828
:1000D0007703000877030008770300087703000818
:1000E000770300087703000800000000770300088A
:1000F00077030008770300087703000877030008F8
:1001000077030008770300087703000877030008E7
:100110007703000877030008817A00087703000856
:1001200077030008770300087703000877030008C7
:1001300077030008770300087703000877030008B7
:1001400000000000000000000000000000000000AF
:100150007703000877030008770300087703000897
:100160007703000877030008770300087703000887
:1001700077030008770300087703000800000000F9
:100180007703000877030008770300087703000867
:100190007703000877030008770300087703000857
:1001A0007703000877030008770300087703000847
:1001B0007703000877030008770300087703000837
:1001C0007703000877030008770300087703000827
:1001D00077030008797400087703000877030008A4
:1001E0007703000877030008770300087703000807
:1001F00077030008770300087703000877030008F7
:1002000077030008770300087703000877030008E6
:1002100077030008770300087703000877030008D6
:100220007703000877030008770300080000000048
:10023000770300087703000800000000210B000886
:1002400077030008770300087703000877030008A6
:100250007703000877030008770300087703000896
:100260007703000877030008770300087703000886
:1002700077030008770300087703000800000000F8
:1002800077030008770300087703000800000000E8
:10029000000000007703000800F002F800F04EF8BC
:1002A0000AA090E8000C82448344AAF10107DA45D1
:1002B00001D100F043F8AFF2090EBAE80F0013F0D5
:1002C000010F18BFFB1A43F001031847681A050015
:1002D000881A0500103A24BF78C878C1FAD85207A6
:1002E00024BF30C830C144BF04680C6070470000B0
:1002F0000023002400250026103A28BF78C1FBD82F
:10030000520728BF30C148BF0B6070471FB50DF0C2
:10031000EDF99DE8030000F0A3FA00F081FA040073
:10032000002000210DF0CCF9401C606000F03CF989
:100330001FBD10B5002000F0D7FA10BD00F014FB6F
:100340001146FFF7E3FF0AF093F800F04CFB03B40B
:10035000FFF7EFFF03BC00F055FA000009488047A3
:1003600009480047FEE7FEE7FEE7FEE7FEE7FEE797
:10037000FEE7FEE7FEE7FEE704480549054A064BAF
:1003800070470000E978000899020008D8EC0020C6
:10039000D8F20020D8EE0020D8EE00202DE9F05F42
:1003A00093460F4680460446002600F017F9D0F821
:1003B0000090824614F8015B2DB100F007F9006847
:1003C000405DC007F6D12B2D02D02D2D1AD0641E12
:1003D0000021CAF800105A463946204600F058F964
:1003E000014627B13868A04201D1C7F80080DAF889
:1003F0000000022809D0CAF80090700505D54842CF
:10040000BDE8F09F46F48066E2E70846F8E70B4651
:100410000146184600F08BB9014A00F09FB9000070
:100420000000002040EA010370B59B072ED14FF079
:100430000136042A2AD308C810C99D1B9D43121FE8
:1004400015EAC61517D0D8B2E1B2401A50EA0561D4
:1004500010D198B2A1B2401A50EA05410AD123F056
:100460007F4024F07F41401A50EA052102D1180E46
:10047000A0EB146070BDA342DBD018BA21BA884249
:1004800001D9012070BD4FF0FF3070BD0AB90020C6
:1004900070BD10F8013B11F8014B63B1A3420AD1C2
:1004A000521E08D010F8013B11F8014B1BB1A342BA
:1004B00001D1521EEDD1181B70BD032A40F23080CD
:1004C00010F0030C00F0158011F8013BBCF1020F95
:1004D000624498BF11F801CB00F8013B38BF11F816
:1004E000013BA2F1040298BF00F801CB38BF00F82D
:1004F000013B11F0030300F05381083AC0F008807B
:1005000051F8043B083A51F804CBA0E80810F5E78D
:10051000121D5CBF51F8043B40F8043BAFF3008070
:10052000D20724BF11F8013B11F801CB48BF11F8E5
:10053000012B24BF00F8013B00F801CB48BF00F8B5
:10054000012B704702F0FF0343EA032242EA024212
:1005500000F002B84FF0000200B5134694469646EC
:10056000203922BFA0E80C50A0E80C50B1F12001C6
:10057000BFF4F7AF090728BFA0E80C5048BF0CC074
:100580005DF804EB890028BF40F8042B08BF7047D2
:1005900048BF20F8022B11F0804F18BF00F8012B44
:1005A000704770477047704770B5064C7C44064DE5
:1005B0007D4404E02046016808448047241DAC4285
:1005C000F8D170BDB4180500B418050010B500F0DE
:1005D00027F9001D10BD00BFE9D00000004870479A
:1005E0002801002070B5064600F016F9056806F1EE
:1005F0000B0020F00704B4429CBF002070BD2B46C6
:100600006A68BAB11068A04210D304F108018842A8
:100610003CBF5068586007D3516810194160116899
:10062000091B016058601460101D70BD13465268AC
:10063000002AE7D12146284600F0FEF80028DED146
:1006400070BD70B50446051F00F0E6F80068002C88
:1006500014BF446870BD002C18BFAC423CBF20469C
:100660006468F8D301680A18AA4218BF456003D12C
:100670002A6805461144016028684119A1421CBF3F
:100680006C6070BD6168696021680844286070BD55
:100690002DE9F05F824615468B4600270AF10104DA
:1006A000B9460078302801D09DB113E014F8010B51
:1006B0000127782803D0582801D045B10AE00DB1B0
:1006C000102D07D1002714F8010B102502E0082592
:1006D00000E00A250026B0460EE005FB080005FBF9
:1006E00006F101271FFA80F801EB1046B6F5803FAE
:1006F00000D3B94614F8010B294600F0E7F80028AA
:10070000EBDABBF1000F05D00FB1641E00E05446D8
:10071000CBF80040B9F1000F06D0FFF75FFF0221D0
:100720000160C81EBDE8F09F48EA0640FAE72DE9DF
:10073000F041074615460E461020FFF753FF040010
:100740000AD06760C4E9026500F06EF801682160B4
:1007500004600020BDE8F0810120FBE72DE9F041B5
:1007600015460E46040002D12C6804B90BA420469D
:1007700000F0EBF80444207870B127463146384643
:1007800000F0D3F80444207810B1002004F8010BE5
:1007900038462C60BDE8F0810027F9E70000000032
:1007A00010B5203AC0F00B80B1E81850A0E81850FE
:1007B000B1E81850A0E81850203ABFF4F5AF5FEA4E
:1007C000027C24BFB1E81850A0E8185044BF18C9F3
:1007D00018C0BDE810405FEA827C24BF51F8043B9A
:1007E00040F8043B08BF7047D20728BF31F8023BEE
:1007F00048BF11F8012B28BF20F8023B48BF00F882
:10080000012B704701491820ABBEFEE7260002000D
:100810000048704728010020004870473001002040
:1008200000487047480100200048704760010020E0
:10083000704770477047704738B504460A46002035
:100840006946AFF30080002808BF38BD0246009912
:10085000204600F0AEF8012038BD012000F0D1B8EC
:10086000F8B5AFF30080054600200C46102000BF0D
:100870000646A819A0420DD9324669460020AFF3BA
:100880000080070008BF00F0BCF80098A04218BF25
:100890000546C419FFF7C0FF05600746F01D20F0AC
:1008A00007004619284600F00AF8B44208BFF8BD10
:1008B000A21B31463868BDE8F84000F07AB8002144
:1008C0000160C0E901107047102070473A2800D23B
:1008D000303820F02002412A01D3A2F137008842AB
:1008E00001D34FF0FF3070472DE9F0410646FFF786
:1008F0009BFF8046454613E016B1E068B0420ED13A
:1009000020682860D4E90101D8F8007088472046A3
:10091000FFF797FED8F80000B842EBD100E025467B
:100920002C68002CE8D1BDE8F08130B503461D7875
:100930001DB10A4603E0AC4201D1181A30BD12F8CD
:10094000014B002CF7D15B1CF1E730B503461D7855
:100950003DB10A4612F8014B1CB1AC42FAD15B1C06
:10096000F5E7181A30BD70477546FFF751FFAE46E0
:1009700005006946534620F00700854618B020B5AB
:10098000FFF7FAFCBDE820404FF000064FF00007EB
:100990004FF000084FF0000BAC46ACE8C009ACE8E3
:1009A000C009ACE8C009ACE8C00921F007018D46D8
:1009B0007047034640688C46002818BF88423CBFF9
:1009C00003464068F8D318681844884207D00CF1F1
:1009D000030020F00700001D411A521A0146081DAD
:1009E0000A60FFF72EBE10B50446AFF30080204624
:1009F000BDE81040FFF7ABBC002801D0FFF702BFF5
:100A0000704710B500F05CF8BDE81040FFF7F4BF88
:100A100030B44FF0013C50F8042BCCFA52F451F8AA
:100A2000043BD51A20D1FCB950F8042BCCFA52F46F
:100A300051F8043BD51A17D1B4B950F8042BCCFAAD
:100A400052F451F8043BD51A0ED16CB950F8042B6E
:100A5000CCFA52F451F8043BD51A05D1002CDAD067
:100A600030BC4FF00000704729BAB1FA81F111F0A3
:100A70001801D1F120008440F2D1CA40CB4012F0DD
:100A8000FF0213F0FF0330BCD01A704770B5054663
:100A90000C460A2000E06D1C00F03AF835B12878C9
:100AA0000028F8D102E0641C00F032F814B120787C
:100AB0000028F8D1BDE870400A2000F029B80000F5
:100AC00010B5012805D0002103A0FFF7DFFF0120AA
:100AD00010BD09A1F8E7000053494752544D454D58
:100AE0003A204F7574206F662068656170206D65CF
:100AF0006D6F7279000000003A2048656170206DCA
:100B0000656D6F727920636F7272757074656400C1
:100B100008B569468DF800000320ABBE08BD000093
:100B200041F6FC10C2F2000000F0AEBE0000000072
:100B3000B0B50446006842F2001140F48070C4F27F
:100B40000201884218D142F20830C4F20200006863
:100B500010F4403F18D005F013FD61680546B1F56B
:100B6000803F05D0B1F5403F2AD0B1F5003F28D1F4
:100B7000080CB5FBF0F524E046F20830C5F602009B
:100B8000006810F4403FE6D14FF4002004F06CFB05
:100B900061680546A1F580224FEAB2420A2A10D8C0
:100BA000DFE802F0060606060606505254565800C4
:100BB0006FF0010000EA5140B5FBF0F501E000BF25
:100BC000AD0802F091FF41F2030188420ED820687F
:100BD00042F60151C0F231118D4281682CBF41F4BF
:100BE000807121F480718160B0BD00BF4BF621405F
:100BF000C0F2BE00854205D82068816821F44071AA
:100C00008160B0BD47F64100C0F27D10854207D833
:100C100020680122816862F309218160B0BD00BFB4
:100C200020684FF28101C0F2FA218D42816805D817
:100C3000022262F309218160B0BD00BF41F440711E
:100C40008160B0BD2D09BCE76D09BAE7AD09B8E711
:100C5000ED09B6E72D0AB4E770B50446006882686E
:100C6000836802F0040203F00803D2186CD0C26853
:100C7000920121D5627D012A1ED1227D012A1BD13C
:100C80000168490613D44DF60441C0F20C01043941
:100C900050D0026852065CBF02685FEA426206D426
:100CA000026852065CBF02685FEA4262EFD54021EB
:100CB0000160012106E000BF022903D102210826BC
:100CC00012E000BF826852070AD58268920707D4F3
:100CD0004FF6C0738268C7F6FF731A401032826005
:100CE00001294FF0040610D0826812070AD58268E5
:100CF000920707D44FF6C0738268C7F6FF731A4095
:100D000020328260032908BF0C2602F0F5FE21681C
:100D10008968314218D0054603E000BF8068304240
:100D200012D002F0E9FE401B06282068F6D3816845
:100D30003142F3D0606D40F010006065A06D40F06E
:100D40000100A065012070BD002070BD0000000002
:100D50000146806B426D12F0500F426D06D0D206F4
:100D600010D4C06CC26C0846104700BF42F400713A
:100D7000416501680A681207CA6805D4910709D05D
:100D800000F03ABD00F07CBD12F4406FF8D1C968A4
:100D90008904F5D4416D21F480714165416DC90428
:100DA000EED4416D41F00101416500F025BD000028
:100DB000806B416D41F040014165816D41F004015E
:100DC000816500F05DBD0000806B00F055BD000046
:100DD000F0B581B0044600688168C90752D14FF66A
:100DE000C0778168C7F6FF7707F17F0211420BD009
:100DF000606D40F010006065A06D40F00100A065DE
:100E0000012001B0F0BD00BF8168394041F001010F
:100E1000816002F071FE42F2000246F20836C4F22E
:100E20000202216802F5807302F54275C5F60206DA
:100E3000994208BF2E4691420A4608BF2E46994263
:100E4000054604BF42F20002C4F2020230688A4240
:100E500018BF10F01F0015D10868C00712D18868AC
:100E6000C00704D18868384040F00100886002F073
:100E700043FE401B21680328EED30868C007EBD16E
:100E8000B6E700BF002001B0F0BD00000000000088
:100E900010B5022802D96FF0010010BD4DF2167195
:100EA0004DF21C72C0F60001C0F60002002431F8B9
:100EB000101052F82000002202F00EFE204610BD55
:100EC000022803D96FF00100704700BF80B54DF2D2
:100ED00016714DF21C72C0F60001C0F6000231F826
:100EE000101052F82000012202F0F6FD002080BD13
:100EF000FEE7000000000000002070470000000036
:100F0000002070470000000010B541F2207440F648
:100F10002071C2F20004C2F200010022204607F054
:100F20003BF840F220712046C2F2000107F024F89D
:100F3000002010BD00000000B0B5096804460AF0AA
:100F400053FD41F220752146C2F20005284607F004
:100F500013F8284606F0ECFF0020B0BD00000000AA
:100F6000002070470000000010B541F22072C2F26C
:100F70000002D2F8BC22D2F81422002A1CBF0120A1
:100F800010BD41F220740A46C2F200040146204618
:100F900007F002F82046BDE8104007F08DB80000C9
:100FA00041F66020C2F2000001F05ABB00000000D0
:100FB00040F20F42D0F800C0C4F20202944511DCA6
:100FC0006F22C4F20202944522DC3F22C4F20202E4
:100FD000944539DC1022C4F2020294455AD02822EA
:100FE00054E000BF40F26F42C4F2020294451BDCA1
:100FF00040F23F42C4F2020294452DDC40F210421E
:10100000C4F20202944545D040F228423EE000BFBF
:101010009F22C4F20202944528DC7022C4F202022C
:10102000944537D0882231E040F29F42C4F2020258
:10103000944523DC40F27042C4F20202944529D068
:1010400040F2884222E000BF4022C4F202029445EE
:1010500020D058221AE000BF40F24042C4F20202FF
:10106000944517D040F2584210E000BFA022C4F2CD
:10107000020294450ED0B82208E000BF40F2B84208
:10108000C4F20202944505D040F2A042C4F202022A
:10109000944519D16FF00F024AF6AB2352FA8CF245
:1010A000CAF6AA23A2FB03310AA35F2AC1F30211E5
:1010B0005B5C40F2FF312CEA0101C36588BF04315B
:1010C00081650846704700BF2CF0FF018165084626
:1010D000704700BF00061016000610160000000042
:1010E00070B540F26F44D0F800C0C4F20204D0F8EA
:1010F00058E0A4451ADC9F25C4F20205AC4533DC58
:101100005725C4F20205AC455ADC1025C4F202058D
:10111000AC4500F098802825C4F20205AC4500F0EB
:1011200092804025C4F202058AE000BF45F22F45B7
:10113000C5F60205AC452DDC40F2B745C4F2020508
:10114000AC454BDC40F27045C4F20205AC457AD0A8
:1011500040F28845C4F20205AC4574D040F2A04587
:10116000C4F202056CE000BF40F22745C4F202055C
:10117000AC4543DCA025C4F20205AC4563D0B825DC
:10118000C4F20205AC455ED040F21045C4F202053F
:1011900056E000BF45F26B45C5F60205AC453FDCA5
:1011A00045F23045C5F60205AC454CD045F2444504
:1011B000C5F60205AC4546D045F258453EE000BFB5
:1011C0005825C4F20205AC453DD07025C4F2020595
:1011D000AC4538D08825C4F2020531E040F2B8456C
:1011E000C4F20205AC452ED045F20845C5F602050D
:1011F000AC4528D045F21C4520E000BF40F2284510
:10120000C4F20205AC451ED040F24045C4F20205CE
:10121000AC4518D040F25845C4F2020510E000BFBA
:1012200045F26C45C5F60205AC450CD045F2944537
:10123000C5F60205AC4506D045F28045C5F6020567
:10124000AC4540F0CF80456EC66E002E866E6E6057
:101250001CBFD0E91C566E60A44515DC9F24C4F267
:101260000204A4452CDC5724C4F20204A44551DC3A
:101270001024C4F20204A4457AD02824C4F2020443
:10128000A44575D040246FE045F22F44C5F6020412
:10129000A44529DC40F2B744C4F20204A44545DC6D
:1012A00040F27044C4F20204A44561D040F2884484
:1012B000C4F20204A4455BD040F2A04454E000BF55
:1012C00040F22744C4F20204A4453FDCA024C4F247
:1012D0000204A4454CD0B824C4F20204A44547D06B
:1012E00040F2104440E000BF45F26B44C5F60204F2
:1012F000A44553DC45F23044C5F60204A4455FD052
:1013000045F24444C5F60204A44559D045F2584478
:1013100052E000BF5824C4F20204A44528D070242F
:10132000C4F20204A44523D088241DE040F2B8444E
:10133000C4F20204A4451BD045F20844C5F60204D9
:10134000A4453DD045F21C4436E000BF40F228449D
:10135000C4F20204A4450BD040F24044C4F202049B
:10136000A44505D040F25844C4F20204A44539D142
:101370008468C06D00F01F003F2505FA00F0CEF82C
:101380000800DCF80000402C20F48020CCF800009D
:10139000CCF8043021D1CCF8082021E045F26C448F
:1013A000C5F60204A4450BD045F28044C5F60204FC
:1013B000A44505D045F29444C5F60204A44511D1D4
:1013C000C46D806804F01F040125402805FA04F468
:1013D000CEF80440CCF80430DDD0CCF8081011462B
:1013E000CCF80C1070BD0000704700000000000039
:1013F000EFF3108072B600BFFEE7000000000000AF
:10140000704700000000000070470000000000006E
:10141000704700000000000070470000000000005E
:101420007047000000000000F0B581B0002200927B
:1014300090F85020012A03D10221084601B0F0BDE6
:101440000768012380F85030BC68640700F17081A0
:101450000C68250394FAA4F2B2FA82F208BFA20E35
:10146000C4F384644D6802F01F02C5F3012603FA39
:1014700002F2FB691A43FA6107EB860205F01F03CB
:101480001F26156B9E4025EA060604FA03F3334334
:101490001363BA68BB6802F0040203F00803D218B1
:1014A00078D10A6807258E68C2F34063C2F30452FC
:1014B00007EB830395405C6906FA02F224EA05050E
:1014C0002A435A6141F20002C5F60042126802F056
:1014D0007042B2F1805F33D14A69FB680E2606EA9A
:1014E000530302FA03F30C69042C39D007F16002AC
:1014F0000E6806F0F84652F82450334305F00045D4
:101500002B4342F824300B694E7E52F82350012EB3
:1015100025F0004508BF05F1004542F823500A7E3A
:101520000B693E69013A03F01F03B2FA82F226F416
:10153000F0465209D2029A4032433A612AE000BF93
:10154000FA684B69FE68D2064FEA560402D404F0EA
:101550000E0201E004F0080293400C69042CC5D18E
:101560003A6E0B6802F0F8429B069A4244D07A6EBB
:1015700002F0F8429A4248D0BA6E02F0F8429A421B
:101580004CD0FA6E02F0F8429A4203D1FA6E22F081
:101590000042FA66BA68D2072CD14FF6FF7CCE68BB
:1015A000C0F20F0C0B6806F0180203EA0C042CFAC8
:1015B00002F240F2000CD7F8C050C4F2FF7CA54301
:1015C0001A40664542EA0502C7F8C02056D17CB3EE
:1015D00093FAA3F2B2FA82F2013202F01E03092B4F
:1015E00002F01F032DD8012203EB43069A4042EA82
:1015F000065332E00021A0E03A6E22F000423A6643
:101600007A6E02F0F8429A42B6D17A6E22F0004227
:101610007A66BA6E02F0F8429A42B2D1BA6E22F0FD
:101620000042BA66FA6E02F0F8429A42AED0B1E7D2
:10163000012202EB936202F01E030A2B02F01F0349
:10164000D1D3012203EB43069A400023CFF6206357
:1016500003EB06531A4342F00073C3F340620725BD
:10166000C3F304538E6807EB82029D40546906FA67
:1016700003F324EA05052B4353610B68B3F1FF3FE5
:1016800002DD002159E000BF42F2000146F2083CB1
:10169000C4F20201C5F6020C01F5807201F5427632
:1016A0009742624608BF32468F4242F2001508BF99
:1016B000324647F48076C4F20205AE4214682FD158
:1016C0008A68D1F808111143C90731D1002104F00B
:1016D000E07ECCF684318B4208BF14F4000133D095
:1016E0000021CCF252718B4208BF14F0807131D0CE
:1016F0000021CCF6B8718B424FF000011DD114F4DB
:10170000800204BFACF54272974216D1DCF800109B
:1017100021F0E07141EA0E0141F480015EE000BF7A
:101720004FF60051CFF6FF715CF80110C907CDD01C
:10173000416D41F0200141650121002280F85020D7
:10174000084601B0F0BD00BFACF542718F4207D032
:101750000021F2E7ACF542718F4237D00021ECE76F
:10176000DCF8001042F6635221F0E071C0F23E5204
:1017700041EA0E0141F40001CCF8001040F20C01E6
:10178000C2F2000109688909A1FB02129109022233
:1017900002EB41010091009921B3009901390091B8
:1017A000009909B30099013900910099F1B10099AC
:1017B000013900910099D9B100990139009100993E
:1017C00000294FF00001E8D1B7E700BFDCF80010B6
:1017D00021F0E07141EA0E0141F08071CCF8001077
:1017E0000021AAE70021A8E70021A6E70021A4E73D
:1017F0000021A2E70000000010B582B04EF65C7038
:1018000040F2201CCEF20000C2F2000CBFF34F8F5A
:10181000C0F800C00CF12001016040F2BC2EBFF303
:101820004F8FC2F2000E42F23000BFF36F8FDEF82E
:101830000810DEF80C3001F00702C2F2000000EBE5
:10184000C222019202EB83040133B3F5FF7FDCF87F
:101850000000A060CEF80C300BD1481C5180002154
:101860000022CEE90201DEF8100001A9002309F0F0
:1018700057F902B010BD00007047000000000000E2
:1018800070470000000000002DE9F04F81B046F2E3
:10189000083942F20002C5F60209C4F20202044607
:1018A000006802F5807A02F5427B4946504508BF40
:1018B0005946904208BF594606684568B2070F6806
:1018C0000FD515F002010CD0606DC00603D4606D19
:1018D00040F4006060652046FFF792FD2068022119
:1018E0000160710707F01F0802D515F0040104D14B
:1018F00031074DD515F008014AD0214651F8542F33
:10190000D20603D40A6842F400720A60C26812F474
:10191000406F37D142F200030246C4F20203504541
:1019200008BF1A46B8F1090F134608BF0346B8F1BD
:10193000050F08BF0346B8F1000F08BF03468242F7
:1019400008BF1346DA6892041CD40268120719D53E
:10195000826852070CD4426822F00C024260086888
:1019600020F4807008600868C00407D50AE000BF52
:10197000606D04F1580140F010006065086840F0A7
:10198000010008602046FFF737FF20680C21016046
:10199000B10602D515F0200104D171062FD515F03E
:1019A00040012CD0214651F8542FD20603D40A68A6
:1019B00042F400520A6042F200020346C4F20202FC
:1019C000504508BF1346B8F1070F1A4608BF024634
:1019D000B8F1060F08BF0246B8F1000F08BF024673
:1019E000834208BF1A46C36C13F4C07FC368D26831
:1019F00076D02046FFF708FD20686021016031069F
:101A00000CD515F0800109D0606D40F48030606520
:101A1000204600F0D5F9206880210160F1050DD540
:101A200015F480710AD0606D40F400306065204686
:101A3000FFF7F2FC20684FF480710160B1050DD50D
:101A400015F400710AD0606D40F480206065204676
:101A5000FFF7E6FC20684FF400710160F10624D521
:101A600015F0100121D0216B89B1B8F1000F59D0C8
:101A700042F20001504508BFD946C4F20201884233
:101A800008BFD946D9F8001011F4404F0BD0606D53
:101A900040F480606065A06D40F00200A0652046C3
:101AA000FFF7EEFE206810210160710514D515F4D2
:101AB000806111D0616D41F480416165A16D41F09B
:101AC0000801A1654FF480610160204601B0BDE8C6
:101AD000F04FFFF79DBC00BF01B0BDE8F08F00BF25
:101AE000970106D503F4406302F40057DB197FF435
:101AF00080AF03685B067FF57CAF12F400127FF4C1
:101B000078AF8268120711D4426822F06002426006
:101B1000086820F4805008600868C0053FF569AF88
:101B20000AE000BFC1688907B1D1BCE7606D04F16C
:101B3000580140F010006065086840F0010008603E
:101B400057E7000000000000B0B582B0044600284E
:101B50004FF00000019009D0606D58B12068816895
:101B6000890012D48168C90019D54AE001252846A8
:101B700002B0B0BD204600F027F90020A06584F82F
:101B80005000206881688900ECD54FF6C0728168EA
:101B9000C5F6FF72114081608168C90031D44FF6EB
:101BA000C0718268C5F6FF7101F18051114042F6A3
:101BB000635201F18051816040F20C01C0F23E524B
:101BC000C2F2000109688909A1FB0212012101EB9F
:101BD000921101E0019901390191019989B10199AD
:101BE00001390191019961B101990139019101997D
:101BF00000291FBF019901390191019918BF0029DE
:101C0000E8D18168C90009D4616D012541F0100156
:101C10006165A16D41F00101A16500E000258168C9
:101C2000626D02F0100201F004018918616D45D166
:101C300021F48171023161658168C90728D142F2BE
:101C4000001240F48071C4F20202914242F200019B
:101C5000C4F2020140F0A8808A68D1F808311A4322
:101C6000D20715D101F5807201F5427346F2080CD6
:101C70009042C5F6020C1A4618BF0CF54072884215
:101C800008BF1A466068116821F47C11084310608F
:101C900001F02AFF617D41F20402A36890424FEAFD
:101CA0004131226B12D3102B10D1207F114341EA16
:101CB000004141F01C0101280FD015E041F0100057
:101CC00001256065284602B0B0BD00BF207F1143EA
:101CD000194341EA0041012806D1206A0022CFF6CB
:101CE000FE7202EB40400143606A28B100F4787054
:101CF000A26A084340EA020120684CF20303CFF6CF
:101D0000F073C2681A401143C1608168826801F0B3
:101D1000040102F00802891832D1217D44F2030C3B
:101D2000E26AC36842EA813123EA0C021143C160CE
:101D300094F838100129016916D14FF61E02CFF62A
:101D4000004201EA020C0021D4E90F23CFF6FF7113
:101D500001EB02414CEA0302636C1143A26C19438C
:101D6000114341F0010101E021F00101016101692C
:101D7000626B21F07041114301612046FEF7D8FEED
:101D80002068E1680129026B22F00F0102D1A269EB
:101D9000013A114301630121606D61F30100606547
:101DA000284602B0B0BD00BF46F20802C5F60202E6
:101DB0001268D2073FF456AF6AE700000000000047
:101DC000704700000000000070B5B6B002A90446DC
:101DD00044F2E04500203590C5F60205349001F14B
:101DE00024009821FEF7B6FB206805F5D9518842FA
:101DF00002D036B070BD00BF4FF400200290012029
:101E000003901221CDE904100220CDE90600C02084
:101E10000890202009904FF4C0500A9002A803F0C7
:101E20001BFC08B1FFF7E4FA286831A940F0807084
:101E300028602868002600F08070019001982868CA
:101E400040F020002860286800F0200001900198F0
:101E50004FF4886031900320329041F20040C5F683
:101E60000200339601F044FD41F660251020C2F2D5
:101E70000005C4F2020028607320C5E901064FF492
:101E8000806028614FF4006068614FF40050A861E1
:101E90004FF48070EE60C5E9070628466E6200F0D8
:101EA000F7FF08B1FFF7A4FA7F2006210022E564BE
:101EB000AC6301F0E9FE7F2001F0D6FE36B070BDC4
:101EC0002DE9F04381B042F2000746F20836C4F231
:101ED00002070446036807F5807507F54270C5F6EA
:101EE0000206AB4208BF0646BB4208BF0646306842
:101EF0009B685B0704D4894694F85010012903D1EC
:101F0000022001B0BDE8F08300F01F060120092E79
:101F100084F850005CD8B04040F22121084257D0EC
:101F200020469046FEF754FF30B1002184F850104F
:101F300001B0BDE8F08300BF216840F60172A942FC
:101F400018BF0F46606D90438F4200F5807060654A
:101F500018BF002E03D1606D20F480106065606DA5
:101F600040F65153C0044FF0000044BFA06D20F074
:101F7000060040F6C957C0F60003A065C0F600078A
:101F8000E06C0022C0E90F3740F6B153E76AC0F6B3
:101F90000003C3641C230B6084F8502043464A6846
:101FA00042F010024A60CA6822F003023A43CA6053
:101FB00040314A4601F0B4FA21684FF6C073C7F6C3
:101FC000FF738A681A4004328A6001B0BDE8F0836A
:101FD000002084F85000012001B0BDE8F08300002B
:101FE00070B5044690F85000012801D1022070BD60
:101FF000012084F8500003212046FEF72DFE0546FF
:1020000020B1002084F85000284670BD2168E06CA3
:10201000CA6822F00302CA6090F83520022A40D133
:1020200000F086F8E0B305462068616D41F040019C
:102030006165416821F01001416081688268D207C2
:10204000DFD011F00201DCD1816801F00D0101291E
:102050001ED14FF6C0728168C7F6FF72114002317F
:1020600081600321016001F047FD21688968C9078B
:10207000C7D0064603E000BF8068C007C1D001F0AA
:102080003BFD801B03282068F6D38168C907F3D085
:10209000606D40F010006065204650F8581F3FE02A
:1020A0002168486820F01000486088688A68D20774
:1020B00017D010F0020014D1886800F00D0001283C
:1020C00026D14FF6C0728868C7F6FF721040023002
:1020D00088600320086001F00FFD21688968C90746
:1020E00008D1204641F20112002550F8541F9143B7
:1020F00016E000BF054602E08068C007F1D001F09D
:10210000FBFC401B03282068F6D38168C907F3D085
:10211000606D012540F010006065204650F8581FA2
:1021200041F001010160002084F85000284670BD94
:102130002DE9F041044601F0DFFC1CB3054694F89C
:102140003500022822D140F20F462768C4F2020669
:1021500040F26F48B7426FF00E00C4F202081DDC77
:102160006F21C4F202018F422ADC3F21C4F2020136
:102170008F4241DC1021C4F202018F4263D028213A
:102180005CE000BF0120BDE8F08100BF80206065F9
:102190000120002184F83410BDE8F08147451BDCA4
:1021A00040F23F41C4F202018F422DDC40F2104167
:1021B000C4F202018F4246D040F228413EE000BF07
:1021C0009F21C4F202018F4228DC7021C4F2020177
:1021D0008F4238D0882131E040F29F41C4F20201A1
:1021E0008F4223DC40F27041C4F202018F422AD0B8
:1021F00040F2884122E000BF4021C4F202018F4238
:1022000021D058211AE000BF40F24041C4F202013F
:102210008F4218D040F2584110E000BFA021C4F214
:1022200002018F420FD0B82108E000BF40F2B84150
:10223000C4F202018F4206D040F2A041C4F2020172
:102240008F42394607D13946386820F01E0041F8E0
:10225000140B6FF080000A68474500EA020008602E
:102260001ADC9F20C4F20200874233DC5720C4F2FC
:10227000020087425ADC1020C4F20200874200F0BC
:1022800097802820C4F20200874200F0918040200D
:10229000C4F202008AE000BF45F22F40C5F60200FA
:1022A00087422DDC40F2B740C4F2020087424BDC8B
:1022B00040F27040C4F20200874279D040F2884078
:1022C000C4F20200874273D040F2A040C4F2020080
:1022D0006CE000BF40F22740C4F20200874243DCBA
:1022E000A020C4F20200874262D0B820C4F20200EB
:1022F00087425DD040F21040C4F2020056E000BFB9
:1023000045F26B40C5F6020087423FDC45F23040A3
:10231000C5F6020087424BD045F24440C5F60200A4
:10232000874245D045F258403EE000BF5820C4F2F5
:10233000020087423CD07020C4F20200874237D0AE
:102340008820C4F2020031E040F2B840C4F202003A
:1023500087422DD045F20840C5F60200874227D0BB
:1023600045F21C4020E000BF40F22840C4F20200C9
:1023700087421DD040F24040C4F20200874217D08D
:1023800040F25840C4F2020010E000BF45F26C4039
:10239000C5F6020087420BD045F29440C5F6020014
:1023A000874205D045F28040C5F60200874204D13D
:1023B000206E016821F480710160386820F001000E
:1023C000386000BF3868C00710D001F095FB401B93
:1023D0000628F7D320206065032084F8350001200B
:1023E000002184F83410BDE8F08100BF2068B042BD
:1023F00010DC6F21C4F2020188421DDC3F21C4F2CF
:102400000201884234DC1021C4F20201884255D016
:1024100028214FE040451BDC40F23F41C4F202015D
:1024200088422DDC40F21041C4F20201884245D0BE
:1024300040F228413EE000BF9F21C4F202018842E1
:1024400028DC7021C4F20201884237D0882131E0B3
:1024500040F29F41C4F20201884223DC40F2704105
:10246000C4F20201884229D040F2884122E000BF34
:102470004021C4F20201884220D058211AE000BF56
:1024800040F24041C4F20201884217D040F2584164
:1024900010E000BFA021C4F2020188420ED0B82192
:1024A00008E000BF40F2B841C4F20201884205D002
:1024B00040F2A041C4F2020188425BD1D4E9161275
:1024C00002F01F023F2303FA02F28A6040455BDC00
:1024D0009F21C4F20201884214DC5721C4F2020198
:1024E000884227DC1021C4F20201884200F0A28059
:1024F0002821C4F20201884200F09C804021C4F2ED
:10250000020195E040F22741C4F2020188421FDC3B
:10251000A021C4F20201884200F08C80B821C4F2EC
:102520000201884200F0868040F21041C4F20201AC
:102530007EE000BF5821C4F2020188427AD07021A7
:10254000C4F20201884275D08821C4F202016FE012
:1025500040F22841C4F2020188426BD040F240416F
:10256000C4F20201884265D040F25841C4F202012F
:102570005EE000BFD4E9161202F01F02012303FA45
:1025800002F24A604045A3DD45F22F41C5F6020143
:10259000884217DC40F2B741C4F20201884227DCCE
:1025A00040F27041C4F20201884243D040F28841B7
:1025B000C4F2020188423DD040F2A041C4F20201BF
:1025C00036E000BF45F26B41C5F6020188421FDCD0
:1025D00045F23041C5F6020188422BD045F2444114
:1025E000C5F60201884225D045F258411EE000BFE1
:1025F00040F2B841C4F2020188421BD045F20841C2
:10260000C5F60201884215D045F21C410EE000BF1C
:1026100045F26C41C5F6020188420BD045F2944167
:10262000C5F60201884205D045F28041C5F6020197
:1026300088420BD1616EA26EE06E4A6030B10168D3
:1026400021F480710160D4E91C014160012084F80B
:1026500035000020002184F83410BDE8F08100002E
:102660002DE9F04782B00021019140F20C010446AF
:10267000C2F2000148F2B512C1F64E32A56D0968EA
:1026800040F26F490068C4F20209A1FB02184845F4
:102690002E68296816DC9F21C4F2020188422DDCD5
:1026A0005721C4F20201884252DC1021C4F2020117
:1026B00088427CD02821C4F20201884277D0402190
:1026C00070E000BF45F22F42C5F60202904229DCBD
:1026D00040F2B742C4F20202904245DC40F270413F
:1026E000C4F20201884262D040F28841C4F2020181
:1026F00088425CD040F2A04154E000BF40F2274144
:10270000C4F2020188423FDCA021C4F202018842E7
:102710004DD0B821C4F20201884248D040F21041A5
:1027200040E000BF45F26B42C5F60202904275DC04
:1027300045F23042C5F60202904200F0828045F236
:102740004442C5F6020290427BD045F2584273E003
:102750005821C4F20201884229D07021C4F202013A
:10276000884224D088211DE040F2B842C4F202021F
:1027700090421CD045F20842C5F60202904260D059
:1027800045F21C4258E000BF40F22841C4F2020169
:1027900088420CD040F24041C4F20201884206D087
:1027A00040F25841C4F20201884240F05A83E16D80
:1027B000082201F01F0140F20F4A8A40C4F2020AC7
:1027C000324200F0E68050454FF0040312DC6F27E0
:1027D000C4F20207B8426FDC3F27C4F20207B842D6
:1027E00000F3A4801027C4F20207B84200F0C580AD
:1027F0002827BDE048456BDC40F23F47C4F20207A2
:10280000B84200F39B8040F21047C4F20207B8427E
:1028100000F0B38040F22847AAE000BF45F26C42C6
:10282000C5F6020290420CD045F28042C5F6020283
:10283000904206D045F29442C5F60202904240F022
:1028400010830268E36D03F01F0304279F400F42CB
:1028500018BF12F0040621D102279F400F4218BF73
:1028600012F002064CD1D940090740F1FA8212F069
:10287000080100F0F682016821F00E0101600120DC
:1028800000FA03F16960606584F835000020E16CAE
:1028900084F83400002940F0DC82E2E211046F6029
:1028A00026D4910603D4016821F004010160216C53
:1028B000002940F0CE82D4E29F27C4F20207B8423A
:1028C00046DC7027C4F20207B84256D088274FE092
:1028D00040F29F47C4F20207B84241DC40F2704721
:1028E000C4F20207B84248D040F2884740E000BF37
:1028F000D00300F1B382A16C002940F0AA82B0E2BB
:1029000011046F6000F1B082910609D4016821F0D2
:102910000A010160012084F83500002084F83400A9
:10292000E16B002940F095829BE200BF4027C4F292
:102930000207B84221D058271AE000BF40F24047B2
:10294000C4F20207B84218D040F2584710E000BF66
:10295000A027C4F20207B8420FD0B82708E000BF92
:1029600040F2A047C4F20207B84206D040F2B8478E
:10297000C4F20207B84218BF082307681F4208D0F4
:10298000036823F004030360AA60626D42F0010251
:10299000626501228A4032426FD0504510DC6F23BD
:1029A000C4F2020398421DDC3F23C4F202039842A2
:1029B00034DC1023C4F20203984256D028234FE09F
:1029C00048451BDC40F23F43C4F2020398422DDC31
:1029D00040F21043C4F20203984246D040F228432A
:1029E0003EE000BF9F23C4F20203984228DC70231C
:1029F000C4F20203984238D0882331E040F29F436A
:102A0000C4F20203984223DC40F27043C4F2020392
:102A100098422AD040F2884322E000BF4023C4F20B
:102A20000203984221D058231AE000BF40F24043ED
:102A3000C4F20203984218D040F2584310E000BF9D
:102A4000A023C4F2020398420FD0B82308E000BFCD
:102A500040F2A043C4F20203984206D040F2B843C9
:102A6000C4F20203984240F0058243691B0604D574
:102A7000AA60626D42F00202626504228A4032421C
:102A80006FD0504510DC6F23C4F2020398421DDC66
:102A90003F23C4F20203984234DC1023C4F2020341
:102AA000984256D028234FE048451BDC40F23F4374
:102AB000C4F2020398422DDC40F21043C4F2020338
:102AC000984246D040F228433EE000BF9F23C4F224
:102AD0000203984228DC7023C4F20203984238D0E3
:102AE000882331E040F29F43C4F20203984223DC82
:102AF00040F27043C4F2020398422AD040F2884365
:102B000022E000BF4023C4F20203984221D05823A0
:102B10001AE000BF40F24043C4F20203984218D0CA
:102B200040F2584310E000BFA023C4F202039842D1
:102B30000FD0B82308E000BF40F2A043C4F2020364
:102B4000984206D040F2B843C4F20203984240F0E3
:102B5000998103689B0704D5AA60626D42F0040264
:102B60006265102202FA01F1314200F08180504585
:102B70004FF0080210DC6F23C4F2020398421DDC00
:102B80003F23C4F20203984234DC1023C4F2020350
:102B9000984256D028234FE048451BDC40F23F4383
:102BA000C4F2020398422DDC40F21043C4F2020347
:102BB000984246D040F228433EE000BF9F23C4F233
:102BC0000203984228DC7023C4F20203984238D0F2
:102BD000882331E040F29F43C4F20203984223DC91
:102BE00040F27043C4F2020398422AD040F2884374
:102BF00022E000BF4023C4F20203984221D05823B0
:102C00001AE000BF40F24043C4F20203984218D0D9
:102C100040F2584310E000BFA023C4F202039842E0
:102C20000FD0B82308E000BF40F2A043C4F2020373
:102C3000984206D040F2B843C4F20203984218BF4B
:102C400004220368134213D0A96001684903016894
:102C500008D4C90508D4016821F008010160216C7D
:102C600021B905E008034FD4216C09B120468847FB
:102C7000E06D00F01F01202000FA01F2324200F066
:102C8000AB8020681023504510DC6F27C4F2020788
:102C9000B8421DDC3F27C4F20207B84238DC1027D7
:102CA000C4F20207B8425AD0282753E048451BDC3B
:102CB00040F23F47C4F20207B84231DC40F210470D
:102CC000C4F20207B8424AD040F2284742E000BFAF
:102CD0009F27C4F20207B8422CDC7027C4F2020717
:102CE000B8423CD0882735E040F29F47C4F2020743
:102CF000B84227DC40F27047C4F20207B8422ED037
:102D000040F2884726E000BFA16C0029AED1AFE7B2
:102D10004027C4F20207B84221D058271AE000BF6A
:102D200040F24047C4F20207B84218D040F2584778
:102D300010E000BFA027C4F20207B8420FD0B827A6
:102D400008E000BF40F2A047C4F20207B84206D034
:102D500040F2B847C4F20207B84218BF022307681E
:102D60001F4239D0AA6094F83520042A02681BD18A
:102D700022F016020260426922F080024261226C57
:102D80000AB9A26C1AB1026822F0080202603F2060
:102D90008840A860012084F83500216D00200029BA
:102DA00084F8340055D15CE0510301680CD4C905A6
:102DB0000ED4016821F010010160012084F8350073
:102DC000002084F8340003E0080301D4616C00E0C3
:102DD000E16B09B120468847606D002841D0606DE5
:102DE000C00734D0042084F8350020684FEA9821C9
:102DF000026822F001020260019A013201928A42C5
:102E00001AD80268D20717D0019A013201928A4279
:102E100012D80268D2070FD0019A013201928A4279
:102E20000AD80268D20707D0019A013201928A4279
:102E300002D80268D207DFD10068C0074FF0030054
:102E400008BF012084F83500002084F83400E16CCC
:102E500039B1204602B0BDE8F0470847216C00298F
:102E6000F7D102B0BDE8F087D0030DD4616C002922
:102E7000EFD1F6E7026804228A4032427FF401AEC5
:102E80006FE600BF02686CE6E16B0029E1D1E8E77C
:102E9000F0B581B0044600F02FFE002C00F0178141
:102EA00040F26F4705462068C4F20207B84217DCBB
:102EB0009F21C4F2020188422EDC5721C4F2020194
:102EC000884255DC1021C4F20201884200F07F8064
:102ED0002821C4F20201884279D0402172E000BF6B
:102EE00045F22F41C5F60201884229DC40F2B74184
:102EF000C4F20201884247DC40F27041C4F2020190
:102F0000884264D040F28841C4F2020188425ED017
:102F100040F2A04156E000BF40F22741C4F2020156
:102F2000884241DCA021C4F2020188424FD0B8217E
:102F3000C4F2020188424AD040F2104142E000BF90
:102F400045F26B41C5F60201884200F3C38045F2A9
:102F50003041C5F60201884200F0CF8045F244417D
:102F6000C5F60201884200F0C88045F25841BFE032
:102F70005821C4F20201884229D07021C4F2020112
:102F8000884224D088211DE040F2B841C4F20201F9
:102F900088421CD045F20841C5F60201884200F083
:102FA000AC8045F21C41A3E040F22841C4F202018A
:102FB00088420CD040F24041C4F20201884206D05F
:102FC00040F25841C4F20201884240F0718202216D
:102FD00084F83510002184F83410016821F00101D3
:102FE00001600168C90709D000F086FD401B052873
:102FF00000F2688020680168C907F5D148F23F02F5
:1030000004F108060168CFF6106211406CCE11433E
:10301000A2691943E3692943256A0E43616A16438D
:10302000042943EA060343EA050303D1D4E90B6507
:1030300033432B4341F20006C5F600463668B6F12D
:10304000005F1DD36668A6F12905292D18D8DFE891
:1030500005F0151515151515171717171717171745
:1030600017171717171717171515151517171717F8
:1030700015151717171717171515151543F480137E
:1030800003600429436923F0070341EA030140F088
:10309000F180D4E90A53002B41EA050100F0EA80EF
:1030A000B2F5005F00F0CC80002A40F0D580022D00
:1030B00000F0D580012D00F0C980002D00F0CF80F8
:1030C000D8E000BF20206065032084F8350001208F
:1030D00001B0F0BD45F26C41C5F6020188420CD04A
:1030E00045F28041C5F60201884206D045F294417E
:1030F000C5F60201884240F0DB81022184F83510D8
:10310000002184F834100168A268A2F18003E66807
:10311000B3FA83F3402A4FEA53134FEA83336FF332
:10312000101108BF1023226941EAD60166691943CC
:10313000A36941EAD201E26941EAD60141EAD30139
:103140004CF6CD4341EAD2014AF6F832CAF2FD729A
:10315000266A0244CCF6CC43A2FB032341EA1611B3
:1031600001606FF0030000EA9300E0652046FDF780
:103170001FFFE16D012201F01F0102FA01F1416020
:103180002068B84240F3858045F22F41C5F6020120
:10319000884217DC40F2B741C4F20201884229DCC0
:1031A00040F27041C4F20201884200F0BC8040F25B
:1031B0008841C4F20201884200F0B58040F2A0418B
:1031C000ACE000BF45F26B41C5F60201884223DC4A
:1031D00045F23041C5F60201884200F0A48045F274
:1031E0004441C5F60201884200F09D8045F25841F5
:1031F00022E000BF40F2B841C4F20201884200F070
:10320000928045F20841C5F60201884200F08B80A9
:1032100045F21C4110E000BF45F26C41C5F60201C9
:10322000884200F0808045F29441C5F60201884250
:1032300000F0798045F28041C5F6020170E000BFE0
:10324000032D17D8DFE805F00E0B0E02A3F1C072B4
:10325000B2FA82F2520904E0032D03D30AD1C3F378
:1032600000623AB140206065012084F8350001B069
:10327000F0BD00BF41612046FDF79AFEE16D3F229F
:1032800001F01F0102FA01F181602068B8423FF7A6
:103290007BAF9F21C4F20201884211DC5721C4F2A6
:1032A0000201884220DC1021C4F2020188423AD097
:1032B0002821C4F20201884235D040212EE000BF0F
:1032C00040F22741C4F20201884219DCA021C4F275
:1032D0000201884227D0B821C4F20201884222D0DC
:1032E00040F210411AE000BF5821C4F202018842A6
:1032F00019D07021C4F20201884214D088210DE057
:1033000040F22841C4F2020188420CD040F2404110
:10331000C4F20201884206D040F25841C4F20201D0
:10332000884240F0E98045F2574C45F6FC01C5F66D
:10333000020CC5F60201604512DC45F22F42C5F6CB
:103340000202904220DC45F20842C5F60202904299
:1033500034D045F21C42C5F6020290422ED075E0F0
:1033600045F27F42C5F6020290421BDC45F258420C
:10337000C5F60202904221D045F26C42C5F6020227
:1033800090421BD062E000BF45F23042C5F6020217
:10339000904213D045F24442C5F6020290420DD04D
:1033A00054E000BF45F29442C5F60202904205D0B7
:1033B00045F28042C5F60202904247D16FF0070203
:1033C0004CF6CD4352FA80F2CCF6CC43A2FB032359
:1033D000A1F1FC05A1F17C061B0905EB830503F0B7
:1033E0001F02A3682566802B4FF0010303FA02F247
:1033F0006666A26604D100206060286072601DE0ED
:103400006768FBB2013F072F2B60726016D85E1E03
:10341000082E19D2604501F1440239DC45F22F47EC
:10342000C5F60207B84245DC45F20847C5F6020773
:10343000B84255D045F21C474EE000BF00206067FF
:10344000C4E91B0058E000BFE06E50E06FF00F02CF
:103450004AF6AB2352FA80F2CAF6AA23A2FB03274C
:1034600040F20F43C4F2020308253A09984203F1DF
:10347000AA06134688BF05EB171340F60005B042B5
:10348000C4F2020505F1800628BF1346A5E700BF78
:1034900045F27F47C5F60207B84215DC45F25847AA
:1034A000C5F60207B8421BD045F26C4714E000BFD6
:1034B000402008E645F23047C5F60207B8420FD073
:1034C00045F2444708E000BF45F28047C5F60207D1
:1034D000B84205D045F29447C5F60207B84213D169
:1034E00001EB83000121E066B140226761670021A2
:1034F0000160D4E91C01416000206065012184F86D
:10350000351001B0F0BD00BF40F60000C4F202006B
:1035100000F1FC0100F5A072E2E7000000000000ED
:10352000B0B500283CD0054690F83400012801D100
:103530000220B0BD012085F8340095F8350001283F
:1035400028D1022085F835000020686528680468C5
:1035500024F0010404602846FDF7C2FD40F20F424A
:103560002868C4F2020240F26F419042C4F20201A4
:1035700018DC6F23C4F20203984225DC3F23C4F217
:10358000020398423CDC1023C4F2020398425ED04E
:10359000282357E04FF400606865002085F8340068
:1035A0000120B0BD88421BDC40F23F43C4F202035D
:1035B00098422DDC40F21043C4F20203984246D0F8
:1035C00040F228433EE000BF9F23C4F2020398422A
:1035D00028DC7023C4F20203984238D0882331E0FB
:1035E00040F29F43C4F20203984223DC40F270434E
:1035F000C4F2020398422AD040F2884322E000BF7E
:103600004023C4F20203984221D058231AE000BF9D
:1036100040F24043C4F20203984218D040F25843AB
:1036200010E000BFA023C4F2020398420FD0B823D9
:1036300008E000BF40F2B843C4F20203984206D04B
:1036400040F2A043C4F20203984240F02F81036885
:103650000B2464F3440303602B6C1BB10823046840
:1036600023430360884219DC9F23C4F2020398427B
:1036700032DC5723C4F20203984259DC1023C4F20F
:103680000203984200F096802823C4F20203984275
:1036900000F090804023C4F2020389E045F22F43FA
:1036A000C5F6020398422DDC40F2B743C4F2020390
:1036B00098424BDC40F27043C4F20203984279D046
:1036C00040F28843C4F20203984273D040F2A04310
:1036D000C4F202036CE000BF40F22743C4F20203CD
:1036E000984243DCA023C4F20203984262D0B8237C
:1036F000C4F2020398425DD040F21043C4F20203C8
:1037000056E000BF45F26B43C5F6020398423FDC2A
:1037100045F23043C5F6020398424BD045F244438C
:10372000C5F60203984245D045F258433EE000BF3B
:103730005823C4F2020398423CD07023C4F202031F
:10374000984237D08823C4F2020331E040F2B843F4
:10375000C4F2020398422DD045F20843C5F6020395
:10376000984227D045F21C4320E000BF40F2284396
:10377000C4F2020398421DD040F24043C4F2020357
:10378000984217D040F25843C4F2020310E000BF41
:1037900045F26C43C5F6020398420BD045F29443C0
:1037A000C5F60203984205D045F28043C5F60203F0
:1037B000984274D12B6E1C68E40303D51C6844F452
:1037C00080741C60EB6E1BB11D6845F480751D6034
:1037D000904211DC6F21C4F2020188421EDC3F21BD
:1037E000C4F20201884235DC1021C4F20201884291
:1037F00055D0282150E000BF88421BDC40F23F41F9
:10380000C4F2020188422DDC40F21041C4F20201F0
:10381000884244D040F228413EE000BF9F21C4F2DC
:103820000201884228DC7021C4F20201884236D0AD
:10383000882131E040F29F41C4F20201884223DC3A
:1038400040F27041C4F20201884228D040F288411F
:1038500022E000BF4021C4F2020188421FD058215B
:103860001AE000BF40F24041C4F20201884216D083
:1038700040F2584110E000BFA021C4F2020188428A
:103880000DD0B82108E000BF40F2B841C4F20201F7
:10389000884204D040F2A041C4F20201884201688B
:1038A00041F0010101600020B0BD00BF03680524A4
:1038B00064F3430303602B6C002B3FF4D3AE04236B
:1038C000CDE6000000000000B0B5044600F014F999
:1038D00040F204010546C2F20001621C097818BFDB
:1038E0000C4400BF00F008F9401BA042FAD3B0BD61
:1038F0002DE9F04F85B08E4642F20042C5F6020235
:103900000A2102909042DEF8005008BF0921002DE4
:10391000009100F0DD800298002400F1264200981A
:1039200002F1FF7201274FEAB2230026092B4FF064
:10393000000838BF1846CDF80CE000900EE000BF3C
:10394000DEF8005008F1010835FA07F006F102062A
:1039500007F1010704F1040400F0BA80A7F1010A9D
:10396000012000FA0AF315EA0309E9D0DEF804B0F1
:103970000BF003056A1E012A22D802984FEA48017B
:10398000D0F808C00191032101FA06F203992CEA4C
:10399000020CD1F80CE00EFA06F1DDF80CE041EA79
:1039A0000C01816041686FEA020CCBF3001299436D
:1039B0000346019802FA0AF2114359600CE000BF75
:1039C0000320032D00FA06F0029B6FEA000C30463C
:1039D00002D13046032526E0D968DEF8082001EA46
:1039E0000C018240022D41EA0201D9601BD102463E
:1039F0006FF0030000EA5A010F20194404F01C0381
:103A000000FA03F51046D1F820E0039A2EEA0505E6
:103A1000DDF80CE012699A40029B2A430A62DEF844
:103A200004B00BF00305196805FA00F001EA0C0177
:103A30001BF4403F40EA010018603FF481AF44F2BC
:103A4000F44140F20845C5F60201C5F600050F2312
:103A5000086840F002000860086800F00200049066
:103A60002AF00300049904F00C0142598B409A4358
:103A7000009B03FA01F1114341514FF0B045286812
:103A8000DEF8041040EA0902CB0258BF20EA09021E
:103A90008B022A6040F20405C5F60005286840EA5A
:103AA000090258BF20EA09028B032A60D5F880007A
:103AB00040EA090258BF20EA0902C903C5F880207C
:103AC000E86F40EA090258BF20EA0902EA6737E7CF
:103AD00005B0BDE8F08F0000002A08BF090481612D
:103AE000704700000000000041F20000C5F60040F1
:103AF0000068000C704700004EF2D850C2F200007F
:103B0000006870470000000040F204004EF2D851F7
:103B1000C2F20000C2F2000100780A681044086096
:103B2000704700000000000080B5032000F0DCF8C2
:103B300002F07EFD44F218414DF20673C5F6020113
:103B4000C0F600030A68096801F00F01C2F30322FE
:103B5000595C9A5C01F01F0102F01F02D04040F254
:103B60001002C2F2000220FA01F1116040F20C01D1
:103B7000C2F2000108600F2000F00AF800281CBF04
:103B8000012080BD00F058F8002080BD000000003A
:103B9000B0B58AB00F2842D804463620002221460C
:103BA000002500F071F8362000F05EF840F20800C1
:103BB000C2F20000046044F2E840C5F60200016869
:103BC00041F010010160006801A900F010000290AE
:103BD000029802A802F0A8FC079C002C18BF012440
:103BE00002F0F6FC4DF68361A040C4F21B3141F2B5
:103BF0000002A0FB010141F6E470C2F200004FF0A8
:103C0000FF33C4F20002026003EB9141C0E90115E9
:103C100040F2E731C0E9031503F0C6F810B1012006
:103C20000AB0B0BD41F6E470C2F2000003F064F9DE
:103C30000AB0B0BD0000000081B044F2F4400022A0
:103C4000C5F60200016841F00201016000680F2121
:103C500000F0020000906FF00100009B01B000F046
:103C600013B8000000000000002848BF704700F0B3
:103C70001F01012202FA01F14EF200124009CEF2B8
:103C8000000242F820107047B0B54EF60C5C00F010
:103C90000F05CEF2000C043D6544DCF800304FF017
:103CA000FF3CC3F3022E8EF00703042B28BF04232E
:103CB000BEF1030438BF00240CFA03F3B0F1FF3F58
:103CC00021EA030105F10C0300F160450CFA04F050
:103CD000C8BF05F56443A14022EA00000843000183
:103CE0001870B0BD000000004EF60C514FF6FF03F7
:103CF000CEF200010A681A4060F30A2242F08060A6
:103D000040F0FD700860704701680122C0F800258E
:103D1000002280F8F424886940F000608861486DD2
:103D200040F08052002042F003024A6570470000D4
:103D300070470000000000000268002051627047D8
:103D40002DE9F047D0F80090D9F82400A1B1D9F8B6
:103D50002830B1F1010800EB13435DD0A8F1010058
:103D600008F0030CC0B203280ED24FF0010E00275A
:103D7000BCF1000F33D14FE040EA0240C9F82800FF
:103D80000020BDE8F08700BF08F0FC0E09F1F40444
:103D9000002009F5827A00BF064654F8100F46F05D
:103DA000010746F00301FFB203EB1040C9B25AF815
:103DB000273046F00207FFB200EB1343301D5AF8DC
:103DC00027505AF82110C7B203EB1543774503EB90
:103DD0001143E1D106F1050EBCF1000F1CD009EB37
:103DE0008700BCF1010FD0F8040103EB104313D09E
:103DF0005FFA8EF0BCF1020F09EB8000D0F80401ED
:103E000003EB104308D00EF10100C0B209EB8000B3
:103E1000D0F8040103EB104309EB880043EA0241A8
:103E2000C0F804110020BDE8F08700000000000089
:103E3000D0F8080504F050BC01EBC10200EB82028F
:103E4000D0F80805D26C04F0ABBB00000000000005
:103E500001EBC10200EB8202D0F80805D2F88C22F7
:103E600004F0FEBB00000000D0F8080504F038BCE8
:103E700010B5044601F00F000A0600EBC00104EB88
:103E8000810213D402F51F71002382F87D3294F869
:103E9000BC240870012A13D0012084F8BC042068D7
:103EA00005F022FA002084F8BC0410BD02F13C01A8
:103EB000012382F83D3094F8BC240870012AEBD12C
:103EC000022010BD00000000B0B5044601F00F0054
:103ED0006268904202D90120B0BD00BF090609D432
:103EE00000EBC001002304EB810202F51F7182F890
:103EF0007D3208E000EBC001012304EB810202F1F6
:103F00003C0182F83D3094F8BC2400258D70012AD4
:103F1000087001D10220B0BD012084F8BC042068E3
:103F200005F03EFD284684F8BC54B0BD00000000FA
:103F300001F00F0101EBC10100EB8100D0F89C0200
:103F40007047000000000000B0B5054601F00F000A
:103F50000C0600EBC00105EB810C05D40CF51F71BC
:103F600000248CF87D4204E00CF13C0101248CF823
:103F70003D404C780870CA60002C0B7118BF088156
:103F8000022B01D10020487195F8BC04012801D111
:103F90000220B0BD012085F8BC04286805F04CF86B
:103FA000002085F8BC04B0BD80B501F00F0C0CEB0F
:103FB000CC0100EB810E0021CEF894320369CEF8DB
:103FC0008C22012BCEF89C128EF87D120EF51F71FB
:103FD0008EF87CC208BFCEF89022BCF1000F0068BA
:103FE000DAB203D005F024FD002080BD05F028FCE6
:103FF000002080BD00000000B0B5044601F00F05B0
:104000004068854202D90120B0BD00BF080609D42E
:1040100001EBC100002204EB800000F51F7180F865
:104020007D2208E005EBC500012204EB800000F1D1
:104030003C0180F83D2094F8BC2401208870012ABE
:104040000D7001D10220B0BD84F8BC04206805F0D9
:10405000CFFC1DB1002084F8BC04B0BD217C04F26B
:10406000C442206805F06CFC002084F8BC04B0BD9C
:1040700010B501F00F0C01240CEBCC0100EB810E0C
:10408000714601F83CCF8B6100230B6203694C70D1
:10409000012B0A6108BFCEF85020BCF1000F006868
:1040A000DAB203D005F0C4FC002010BD05F0C8FB57
:1040B000002010BD000000002DE9F04F89B0056818
:1040C0008246284605F0B4FE10B109B0BDE8F08F75
:1040D000DAF8000005F0DCFE0028F6D0D5F8080874
:1040E000C0F30D20CAF8FC04DAF8000005F0D0FE99
:1040F0008007DAF8000003D5416901F0020141614F
:1041000005F50061049105F0C3FEC006DAF8000071
:1041100005953BD5816921F0100181612C6A04F07D
:104120000F05C4F34340062818D0022827D147F6CC
:10413000F07014EA000622D005EBC50034090AEB42
:10414000800705982246D7F88C1205F0A5FED7F80F
:104150008C0200EB1610C7F88C0207E00AF2C4418B
:104160000822059805F098FEC4F30A1405EBC50073
:104170000AEB8000D0F89C122144C0F89C12DAF8B7
:104180000000816941F010018161059D05F080FE0C
:104190000003CDF820A040F10381DAF8000005F01B
:1041A00053FE002800F0FC8006460AF527784FF4FD
:1041B00030644FF0000B0AF2C440079009E000BFE2
:1041C0000BF1010B760804F1200408F1240800F03B
:1041D000E780F007F4D05FFA8BF9DAF8000049467F
:1041E00005F04EFE8246C0076DD02819012181607E
:1041F000089F38682118036C8A683F69012F29D10C
:1042000017073BD497065BD412F0280F059D5AD1AF
:1042100043F20B07C4F65477BB4202D312F40042B8
:104220004AD158F8042C09696FF3DF41BBF1000F44
:10423000A2EB0101059DC8F8001019D1089BD3F825
:104240009422002A00F0A680D3F88C020844C3F818
:104250008C020DE043F20B07C4F65477FF37BB42E4
:104260001AD1100428D49006059D01D5202088601D
:1042700008984946FFF7ECFD25E000BF43F20B002C
:10428000059DC4F6547083421DD312F400401AD029
:104290004FF40040886016E0BBF1000F07D1089989
:1042A000D1F8941219B90021079A05F049FB089832
:1042B0004946FFF7CDFD05E04FF4004001E000BFA7
:1042C00020208860059D5FEA0A7025D528190821FD
:1042D000816043F20B010898C4F654714F1E0068C8
:1042E000056C2044BD42816805D911F400411CBF12
:1042F0004FF400418160089800F0F2FCBD42059D3A
:104300000AD908980069012806D108980121079A5E
:10431000006805F015FB00BF5FEACA600CD45FEAD5
:104320008A700FD45FEA8A6025D45FEA8A40DDF89C
:1043300020A07FF545AF27E02819102181605FEAB2
:104340008A70EFD56869000604D50499486840F47E
:104350008060486018F81D0C012806D1002008F87C
:104360001D0C0898494600F093FB28190221816032
:104370005FEA8A60D9D52819202181605FEA8A40E6
:10438000DDF820A07FF51CAF28194FF400518160A3
:1043900016E700BF0121079A05F0D2FA68E700BFCF
:1043A000DAF8000005F074FD400340F1E580DAF82A
:1043B000000005F041FD002800F0DE80064605986B
:1043C000002700F5106003900AF2C440029004E058
:1043D000760807F1010700F0CF80F007F8D0F9B2B6
:1043E000DAF80000079105F037FD0446C007039D89
:1043F0000AD1200734D4E00638D460063CD4A007A4
:1044000040D42006E4D556E0049B07F00F004FF09F
:10441000010C05EB47120CFA00F0596B21EA000081
:104420005863C2F808C0DAF81000012812D107EB6F
:10443000C7000AEB8000D0E912121144C1644FB9E1
:10444000DAF8540030B9DAF800000121029A05F0D8
:1044500077FA00BF50460799FFF7EEFC2007CAD550
:1044600005EB471008218160E006C6D505EB471033
:10447000102181606006C2D505EB471040218160A4
:10448000A007BED50598394605F066FC07EBC700C6
:104490000AEB800010F83F1F012905D100210170AF
:1044A0005046079900F0F0FA05EB471002218160B1
:1044B00020067FF58DAF07EBC7000AEB800BD946CE
:1044C00059F8542FC84658F8080F8242FFF480AFBD
:1044D000DAF80010151A5BF8483F9D4201EB471CC3
:1044E00088BF1D4606910335DCF8181989B2B1EB77
:1044F000950F28BF824203D882423FF669AF2EE073
:104500000BF1040A0CF51065DAF80010141A08987B
:104510009C42007C88BF1C460090A3B2DDE90602E5
:1045200005F0EAFDDAF80000E21C0119D8F80000F5
:10453000CAF800102044C8F80000AB699BB2B3EB86
:10454000920FD9F8002028BF824203D9DBF800304F
:10455000DCE700BFDDF820A082423FF639AF069AC3
:1045600007F00F00012101FA00F0D2F8341821EA17
:104570000000C2F834082BE7DAF8000005F088FCE8
:1045800000281DD4DAF80000059C05F081FC000528
:1045900036D4DAF8000005F07BFC000141D4DAF8EB
:1045A000000005F075FCC0044DD4DAF8000005F0F9
:1045B0006FFC8004DAF8000000F161817AE100BF4D
:1045C0000499486820F0010048609AF8F404012832
:1045D00008D100208AF8F40400215046FFF7A8FB18
:1045E00003E000BF504600F05FFBDAF80000059CD6
:1045F000416901F00041416105F04AFC0005C8D560
:1046000004988068C00702D0504600F091FBDAF8A9
:104610000000416901F40061416105F039FC0001CD
:10462000BDD5DAF80000416901F0006141619AF8F6
:10463000F414F9B1504600F07BFBDAF8000005F005
:1046400027FCC004B1D5D4F80408102120F00100E3
:10465000C4F80408DAF8000005F07EFBDAF804007C
:10466000002800F0D780411E00F0030C032915D26A
:10467000002181E001218AF8F414406D0121C0F38A
:104680008300CAF8F8045046FFF752FBDAF800003E
:1046900005F0FEFBC0047FF588AFD4E720F0030EE1
:1046A00004F536634FF6A0584FF6C0554FF6E05468
:1046B0004FF6006000214FF67F37CFF6FF78CFF638
:1046C000FF75CFF6FF74CFF6FF7000BFA3F5187229
:1046D000A3F51076043197608E4553F8082022F434
:1046E000001243F8082043F8587C53F8602C22F459
:1046F000001243F8602C53F8602C42F0006243F83B
:10470000602CB760A3F508765A5922F400125A516A
:1047100043F8387C53F8402C22F4001243F8402C24
:1047200053F8402C42F0006243F8402CB760A3F5E8
:1047300000761A5922F400121A5143F8187C53F8E3
:10474000202C22F4001243F8202C53F8202C42F0A5
:10475000006243F8202CB7601A5822F400121A5055
:104760009F601A6822F400121A601A6842F0006210
:104770001A6003F18003A9D1BCF1000F059849D05C
:1047800000F5106200F5306002EB41174FF67F3301
:104790004E01BCF1010FBB6000EB4115975927F4A6
:1047A00000179751AB60875927F400178751875935
:1047B00047F0006787512DD04F1CBCF1020F4FEA24
:1047C000471502EB471600EB4717B360565926F41E
:1047D00000165651BB60435923F40013435143590B
:1047E00043F00063435115D002314FF67F364F013D
:1047F00002EB411300EB41119E60D35923F40013E7
:10480000D3518E60C15921F40011C151C15941F0F9
:104810000061C151049AD06940F00110D061DAF80A
:10482000300048B1D2F8840040F00B00C2F8840098
:1048300002F1440007E000BF506942F22B01084337
:10484000506102F11000016841F00B010160106835
:1048500020F4FE6010609AF810100AF2C442DAF8F0
:10486000000005F06DF8DAF80000416901F48051AC
:10487000416105F00DFB8004DAF800001AD504F060
:104880001FFCDAF8000005F0C3FACAF80C00DAF8E9
:10489000004001F075FE9AF80C200146204605F014
:1048A0009BFB504600F0E8F9DAF80000416901F49A
:1048B0000051416105F0ECFA000707D4DAF8000076
:1048C00005F0E6FA00060ED434E000BF504600F0D2
:1048D000EFF9DAF80000416901F00801416105F0E3
:1048E000D7FA000626D50599886920F080008861EE
:1048F000DAF8040002281DD30AF2A324012503E0FC
:1049000001352434854215D221780129F8D105F0EA
:104910000F002A0600EBC0000AEB800000F13C010A
:1049200058BF00F51F71DAF8000005F085F9DAF8D4
:104930000400E5E7DAF8000005F0AAFAC0024FD457
:10494000DAF8000005F0A4FA8002059D40F17E80AF
:10495000DAF8040002282AD3013805F532610AF595
:104960002972012306E000BF013801F1200102F1A4
:1049700024021CD00F681678012EF5D1B7F1FF3F45
:10498000F2DCDAF8FC6407F4803706F00106B7427F
:10499000EAD102F8013CAF6947F08007AF616F6967
:1049A0003F06E1D40499486840F400704860DAF8A2
:1049B0000000416901F40011416105F069FA40000D
:1049C0004AD55046FFF734FADAF80000416901F0A1
:1049D0008041416105F05CFA400744D4FFF775BBA4
:1049E000DAF80400022825D305990AF1640501F5D7
:1049F00012640126012705E001372034874205F1C2
:104A0000240517D221682A78012AF5D1B1F1FF3F98
:104A1000F2DC07F00F0005F8016C00EBC0000AEBB8
:104A2000800000F13C01DAF8000005F005F9DAF841
:104A30000400E1E7DAF80000416901F48011416106
:104A400005F026FA8002059D3FF582AFDAF80000F6
:104A500005F01EFA4000B4D4DAF8000005F018FAA8
:104A600040077FF532ABDAF800004468610704D5EF
:104A70005046FFF7F9F9DAF8000041682143416038
:104A800009B0BDE8F08F0000D0F8080503F088BE3B
:104A9000D0F8080503F098BE2DE9F04F8BB0002840
:104AA00000F080800446056890F8BD0428B9002015
:104AB00084F8BC04204600F08FF8032084F8BD047D
:104AC000E86BC00501D400202061206804F0B0FE2E
:104AD00020680A9004F1040E04F11C0AD4E90C5079
:104AE0009EE80E589AE8C007CDE9085003A88DE863
:104AF000005880E8C0070A9804F0F2FA00284ED166
:104B000020680021002505F01FFA616849B304F10F
:104B100054000122012300BF5F1E00F8187C20F81A
:104B2000107CDFB20133B94200F8172C00F8145C96
:104B300040E9035540F8245BEED804F525700122C6
:104B4000002300BF571E00F8187CD7B20132B942CB
:104B500000F8173C00F8143C40E9033340F8243BCC
:104B6000F0D804F1140E04F1240A2268A0680A9017
:104B7000D4E903379EE840589AE80007D4E90C507E
:104B8000CDE9085002A8CDE9007680E8005805A8D4
:104B900080E8000710460A9A04F00AFC30B10220AF
:104BA00084F8BD0401200BB0BDE8F08F002084F82C
:104BB0003800012084F8BD04606A012802D1204633
:104BC000FFF7A2F8206804F0E3FB00200BB0BDE87B
:104BD000F08F00000000000010B5B6B002A9044636
:104BE000081DB821FBF7B6FC00212068C4F20801BB
:104BF000884201D036B010BD4FF4802002904FF4AF
:104C00004010239002A800F027FD08B1FCF7F0FB4C
:104C100000F0D2F844F2D84431A9C5F60204A068E5
:104C200040F00100A060A06800F0010031903198D0
:104C30004FF4C8503190022032900020CDE933006B
:104C40000A2035900020C5F60200FEF751FE2068CC
:104C5000052140F0006020602068002200F0006024
:104C6000019001986520FFF70FF86520FEF7FCFF23
:104C700036B010BD0000000010B50446C06818B181
:104C8000022803D1012104E0002102E0FCF7B0FB7F
:104C90000121D4F8080503F023FED4F80805BDE887
:104CA000104003F0CDBD0000D0F8080503F0FCBDB6
:104CB000D0F8080503F004BE10B5044690F8BC0413
:104CC000012801D1022010BD012084F8BC0484F821
:104CD0003810206805F06CF9002084F8BC0410BD81
:104CE000D0F8082500F2C441104603F011BE0000C0
:104CF00010B5044690F8BC04012801D1022010BD73
:104D0000A16A206801294FF0010184F8BC1406D182
:104D1000A169012903D0816B41F48031816305F0E1
:104D200013F8206804F024FB002084F8BC0410BDB4
:104D300010B50446D0F8080503F046FE2068D0F808
:104D4000001E41F00101C0F8001E206A002808BFC3
:104D500010BD4EF61050CEF20000016841F0060181
:104D6000016010BD00000000B0B544F60C05C5F6AA
:104D7000020529684907296806D401F00701081AC5
:104D800018BF0120B0BD00BF21F007010843286013
:104D9000FEF7B2FE044600BF55F8080C800407D4A5
:104DA000FEF7AAFE001BB0F57A7FF5D90120B0BD51
:104DB0000020B0BD0000000044F60C00C5F6020063
:104DC000016841F080710160704700000000000040
:104DD00080B544F2304EC5F6020E5EF8083C5EF82F
:104DE000081CC1F3051C5EF8041CBCF1000FDEF8C2
:104DF000042023D0C2F3CC0201F00101514303F09F
:104E00000303022B00EE101AB8EE400A1CD0012B4F
:104E10002AD01BB95EF8301C89066FD4DEF800106A
:104E20009FED492A6FF35F2101EE101AB8EE411A87
:104E3000A0EE021A9FED470A24E000BF0021816026
:104E4000C0E9001180BD00BFDEF800109FED3E2AD2
:104E50006FF35F2101EE101AB8EE411AA0EE021AAC
:104E60009FED3A0A0EE000BFDEF800109FED362AF3
:104E70006FF35F2101EE101AB8EE411AA0EE021A8C
:104E80009FED330AA1EE000A01EE10CAB8EE411AF6
:104E9000DEF8001080EE010AB7EE002AC1F34621C9
:104EA00001EE101AB8EE411A31EE021A80EE011A24
:104EB000BCEEC11A80ED001ADEF80010C1F3064105
:104EC00001EE101AB8EE411A31EE021A80EE011A04
:104ED000BCEEC11A80ED011ADEF80010C1F30661C4
:104EE00001EE101AB8EE411A31EE021A80EE010AF4
:104EF000BCEEC00A10EE101A816080BDB7EE001A39
:104F00005EF8301CDEF800209FED0F2A6FF35F2261
:104F1000C1F3C101A0EE021A00EE102A49F200020C
:104F2000C0F2D03222FA01F1B8EE400A02EE101AB5
:104F3000B8EE422A31EE000A01EE10CAB8EE411A6C
:104F400020EE020AA4E700BF000000390024F44A62
:104F50000024744A0024744C80B544F2384EC5F6DF
:104F6000020E5EF8103C5EF8101CC1F3053C5EF8C2
:104F70000C1CBCF1000FDEF8042023D0C1F300119B
:104F800003F00303C2F3CC02022B02FB01F100EE9B
:104F9000101AB8EE400A2BD0012B19D0C3B95EF815
:104FA000381C89066ED4DEF800109FED492A6FF395
:104FB0005F2101EE101AB8EE411AA0EE021A9FED21
:104FC000470A23E000218160C0E9001180BD00BFD5
:104FD000DEF800109FED3E2A6FF35F2101EE101AFC
:104FE000B8EE411AA0EE021A9FED3B0A0EE000BF98
:104FF000DEF800109FED362A6FF35F2101EE101AE4
:10500000B8EE411AA0EE021A9FED320AA1EE000A94
:1050100001EE10CAB8EE411ADEF8001080EE010A67
:10502000B7EE002AC1F3462101EE101AB8EE411A7C
:1050300031EE021A80EE011ABCEEC11A80ED001AA0
:10504000DEF80010C1F3064101EE101AB8EE411A65
:1050500031EE021A80EE011ABCEEC11A80ED011A7F
:10506000DEF80010C1F3066101EE101AB8EE411A25
:1050700031EE021A80EE010ABCEEC00A10EE101AE0
:10508000816080BDB7EE001A5EF8381CDEF80020A3
:105090009FED0F2A6FF35F22C1F3C101A0EE021A48
:1050A00000EE102A49F20002C0F2D03222FA01F1D9
:1050B000B8EE400A02EE101AB8EE422A31EE000AAB
:1050C00001EE10CAB8EE411A20EE020AA4E700BFB2
:1050D000000000390024F44A0024744A0024744C6F
:1050E00080B544F2404EC5F6020E5EF8183C5EF8FC
:1050F000181CC1F3055C5EF8141CBCF1000FDEF84F
:10510000042023D0C1F3002103F00303C2F3CC0237
:10511000022B02FB01F100EE101AB8EE400A2BD070
:10512000012B19D0C3B95EF8401C89066ED4DEF895
:1051300000109FED492A6FF35F2101EE101AB8EEBF
:10514000411AA0EE021A9FED470A23E00021816078
:10515000C0E9001180BD00BFDEF800109FED3E2ABF
:105160006FF35F2101EE101AB8EE411AA0EE021A99
:105170009FED3B0A0EE000BFDEF800109FED362ADF
:105180006FF35F2101EE101AB8EE411AA0EE021A79
:105190009FED320AA1EE000A01EE10CAB8EE411AE4
:1051A000DEF8001080EE010AB7EE002AC1F34621B6
:1051B00001EE101AB8EE411A31EE021A80EE011A11
:1051C000BCEEC11A80ED001ADEF80010C1F30641F2
:1051D00001EE101AB8EE411A31EE021A80EE011AF1
:1051E000BCEEC11A80ED011ADEF80010C1F30661B1
:1051F00001EE101AB8EE411A31EE021A80EE010AE1
:10520000BCEEC00A10EE101A816080BDB7EE001A25
:105210005EF8401CDEF800209FED0F2A6FF35F223E
:10522000C1F3C101A0EE021A00EE102A49F20002F9
:10523000C0F2D03222FA01F1B8EE400A02EE101AA2
:10524000B8EE422A31EE000A01EE10CAB8EE411A59
:1052500020EE020AA4E700BF000000390024F44A4F
:105260000024744A0024744C10B584B00146B0F593
:10527000805F4FF0000025DBB1F5004FC0F2828067
:1052800000F0AA80B1F5803F00F00681B1F5002F53
:1052900040F0578144F20040C5F60200816D01F4F0
:1052A0004031B1F5003F00F05381B1F5803F00F08F
:1052B0003781002940F08F810068000140F18B8127
:1052C0001DE100BFB1F5806F2EDAB1F5807F00F0EF
:1052D0009780B1F5007F40F0348144F20041C5F67B
:1052E0000201086DC0F38212042A00F2748148F2B0
:1052F0000000C0F2BB00DFE812F0F500FF0009017A
:1053000024010500C86C0A68520700F04052086882
:1053100002D5002A00F08181C00540F13381B2F14D
:10532000805F00F072812DE100F09080B1F5006F98
:1053300040F0078144F20041C5F60201886DC0F3D8
:105340000262042A00F2478148F20000C0F2BB006A
:10535000DFE812F0C800D200DC00F700060000BF52
:10536000C86C0A68520700F04052086802D5002A4B
:1053700000F05381C00540F10581B2F1805F00F07B
:105380004481FFE0B1F5805F00F09880B1F5804F77
:1053900040F0D78044F20044C5F60204A06DC0F38B
:1053A0000270052800F21781DFE810F00600FE0009
:1053B000080112011801200101F0E2F8216A4DF202
:1053C0000672C0F60002C1F30211515C01F01F0128
:1053D000C84004B010BD00BF44F20040C5F6020052
:1053E000016D01F04051B1F1005F00F0A380B1F117
:1053F000805F00F0A980002940F0ED800068F6E0B1
:1054000044F20041C5F60201086D00F00702042ACB
:1054100000F2E18048F20000C0F2BB00DFE802F0D9
:10542000626C7691040000BFC86C0A68520700F0F5
:105430004052086802D5002A00F0EF80C00540F114
:10544000A180B2F1805F00F0E0809BE044F2004177
:10545000C5F60201886DC0F34252042A00F2BB80F7
:1054600048F20000C0F2BB00DFE802F03C46506B9F
:10547000040000BFC86C0A68520700F04052086878
:1054800002D5002A00F0C980C00540F17B80B2F14E
:10549000805F00F0BA8075E044F20040C5F602007B
:1054A000C16C0068C9031ED5000140F1948001A8B9
:1054B000FFF752FD039804B010BD00BF44F2004155
:1054C000C5F60201086DC0F30232042A00F283809F
:1054D00048F20000C0F2BB00DFE802F0040E18330F
:1054E000460000BF0868800175D501A8FFF770FC71
:1054F000029804B010BD00BF086800016BD501A878
:10550000FFF72AFD019804B010BD00BF08688000B5
:1055100061D501A8FFF7E4FD019804B010BD00BFFC
:105520000068800057D501A8FFF7DAFD039804B0A2
:1055300010BD00BF006800014DD501A8FFF70CFDAC
:10554000029804B010BD00BF0068800143D5CCE7CD
:10555000C16C0268520701F04051026850D5002921
:105560004ED1C2F3C1005AE0C86C0A68520700F07D
:105570004052086801D5002A4FD0C00502D5B2F1CB
:10558000805F42D00868B2F1005F00F400314FF054
:10559000000004BF41F20020C0F27A00002908BFD9
:1055A000084604B010BD00BF2068000113D501A853
:1055B000FFF7D2FC029804B010BD00BF2068800045
:1055C00009D501A8FFF78CFD029804B010BD00BFFB
:1055D0002068400720D4002004B010BD206840F6A9
:1055E0000011C005C0F23D0106E000BF206841F295
:1055F00000218003C0F27A0101EAE07004B010BD1E
:10560000D20515D5B1F1805F12D140F60010C0F27D
:105610003D0004B010BD00BF2068C0F3C10049F2D6
:105620000001C0F2D03121FA00F004B010BD00BF7B
:105630000068B1F1005F00F400324FF0000004BFD9
:1056400041F20020C0F27A00002A08BF104604B0E0
:1056500010BD0000000000002DE9F0470446C078AE
:1056600044F22C480007C5F6020845D5606E4FEAA3
:10567000305103290CD8DFE801F003112F3800BFA7
:10568000D8F8001041F40031C8F800102DE000BF38
:1056900001266078C0070AD032E000BF201D022139
:1056A00001F02AFF0646F8B16078C00728D13546D8
:1056B0003746607880073BD43E466078400750D438
:1056C000B1466078000700F167804F46E0788007B8
:1056D00040F15F817AE000BF04F12400022101F073
:1056E0009FFF06460028DFD1606ED8F8241021F411
:1056F00040110843C8F8240000266078C007D6D0BF
:10570000606D042800F2A6803546DFE800F003ABA8
:10571000B10A0A00D8F80000354640F40030C8F855
:105720000000002D2F4600F0AD8060788007C3D5C3
:10573000A06D4FEAB010042800F2B480DFE800F05A
:1057400004BAC00A0A0000BFD8F8000040F40030D4
:10575000C8F80000002D2E4600F0BC80607840079D
:10576000AED5D4F8A4004FEA7050042800F2C280ED
:10577000DFE800F004C8CE0A0A0000BFD8F8000035
:1057800040F40030C8F80000002DA94600F0CA809F
:10579000607800077FF599AFD4F8A8004FEA306031
:1057A000042800F2CF80DFE800F003D5DB09090010
:1057B000D8F8000040F40030C8F80000002D2F4653
:1057C00000F0D880E078800740F1E380A06C4FEAD9
:1057D000301003281AD8DFE800F003212B0300BFA4
:1057E0002E466DB36078C00600F1D88037466078E9
:1057F000800600F1ED803E466078400600F1FC80B6
:1058000037466078000640F1BA8109E1012501269A
:105810006078C00600F1C280E8E700BFD8F8000059
:1058200040F40030C8F80000002D2E46DAD107E021
:10583000201D022101F060FE0546002D2E46D1D12B
:10584000D8F82000A16C20F0300000250843C8F8EB
:1058500020009EE001250127607880073FF568AFB2
:105860002AE700BF201D002101F046FE05E000BF31
:1058700004F12400002101F0D3FE0546002D2F463F
:105880007FF453AFD8F82400616D20F007000025A5
:105890000843C8F824003746607880077FF50CAFCE
:1058A00046E700BF01250126607840073FF559AF64
:1058B00006E700BF201D002101F01EFE05E000BF2D
:1058C00004F12400002101F0ABFE0546002D2E4618
:1058D0007FF444AFD8F82400A16D20F4E0700025D7
:1058E0000843C8F824003E46607840077FF5E8AEDC
:1058F00037E700BF01254FF00109607800073FF549
:105900004BAFE2E6201D002101F0F6FD05E000BFEF
:1059100004F12400002101F083FE0546002DA94674
:105920007FF436AFD8F82C00D4F8A41020F460002F
:1059300000250843C8F82C00B146607800077FF5C1
:10594000C4AE29E701250127E07880073FF53EAF87
:105950001FE000BF201D002101F0CEFD05E000BFCB
:1059600004F12400002101F05BFE0546002D2F46C6
:105970007FF428AFD8F82C00D4F8A81020F0E0600D
:1059800000250843C8F82C004F46E07880073FF513
:105990001DAF3E466078C0067FF528AFE06D4FEA48
:1059A0003030042800F26C80DFE800F00472780ADE
:1059B0000A0000BFD8F8000040F40030C8F800002A
:1059C000002D2F4600F07480607880067FF513AFBD
:1059D000206E4FEA3040052800F27A80DFE800F0C0
:1059E00004808A04040400BF002D2E4600F08C8041
:1059F000607840067FF504AFD4F8AC004FEA307011
:105A0000052800F29180DFE800F00397A10303036B
:105A1000002D2F4600F0A4806078000640F1AF8092
:105A2000E06E58B1B0F1005F10D0B0F1805F1FD1CF
:105A3000D8F8000040F40030C8F800002E466DB1E0
:105A4000E078C00700F0CF809DE000BF201D01215D
:105A500001F052FD0546002D2E46F1D1D8F8240064
:105A6000E16E20F0405000250843C8F8240086E08D
:105A700001250126E078C00740F08580B3E000BF33
:105A800001250127607880063FF5A2AFB3E600BF8D
:105A9000201D002101F030FD05E000BF04F12400CD
:105AA000002101F0BDFD0546002D2F467FF48CAF8F
:105AB000D8F82400E16D20F4E04000250843C8F840
:105AC00024003746607880067FF595AE80E700BFFA
:105AD00001250126607840063FF58EAF90E600BFB5
